{
  "contractName": "Remit",
  "abi": [
    {
      "inputs": [],
      "stateMutability": "nonpayable",
      "type": "constructor"
    },
    {
      "anonymous": false,
      "inputs": [
        {
          "indexed": true,
          "internalType": "address",
          "name": "_owner",
          "type": "address"
        },
        {
          "indexed": true,
          "internalType": "address",
          "name": "_spender",
          "type": "address"
        },
        {
          "indexed": false,
          "internalType": "uint256",
          "name": "_value",
          "type": "uint256"
        }
      ],
      "name": "Approval",
      "type": "event"
    },
    {
      "anonymous": false,
      "inputs": [
        {
          "indexed": true,
          "internalType": "address",
          "name": "previousOwner",
          "type": "address"
        },
        {
          "indexed": true,
          "internalType": "address",
          "name": "newOwner",
          "type": "address"
        }
      ],
      "name": "OwnershipTransferred",
      "type": "event"
    },
    {
      "anonymous": false,
      "inputs": [
        {
          "indexed": true,
          "internalType": "address",
          "name": "_from",
          "type": "address"
        },
        {
          "indexed": true,
          "internalType": "address",
          "name": "_to",
          "type": "address"
        },
        {
          "indexed": false,
          "internalType": "uint256",
          "name": "_value",
          "type": "uint256"
        }
      ],
      "name": "Transfer",
      "type": "event"
    },
    {
      "inputs": [],
      "name": "acceptOwnership",
      "outputs": [],
      "stateMutability": "nonpayable",
      "type": "function"
    },
    {
      "inputs": [
        {
          "internalType": "address",
          "name": "_owner",
          "type": "address"
        },
        {
          "internalType": "address",
          "name": "_spender",
          "type": "address"
        }
      ],
      "name": "allowance",
      "outputs": [
        {
          "internalType": "uint256",
          "name": "remaining",
          "type": "uint256"
        }
      ],
      "stateMutability": "view",
      "type": "function"
    },
    {
      "inputs": [
        {
          "internalType": "address",
          "name": "_spender",
          "type": "address"
        },
        {
          "internalType": "uint256",
          "name": "_amount",
          "type": "uint256"
        }
      ],
      "name": "approve",
      "outputs": [
        {
          "internalType": "bool",
          "name": "success",
          "type": "bool"
        }
      ],
      "stateMutability": "nonpayable",
      "type": "function"
    },
    {
      "inputs": [
        {
          "internalType": "address",
          "name": "_owner",
          "type": "address"
        }
      ],
      "name": "balanceOf",
      "outputs": [
        {
          "internalType": "uint256",
          "name": "balance",
          "type": "uint256"
        }
      ],
      "stateMutability": "view",
      "type": "function"
    },
    {
      "inputs": [
        {
          "internalType": "uint256",
          "name": "_amount",
          "type": "uint256"
        }
      ],
      "name": "burn",
      "outputs": [
        {
          "internalType": "bool",
          "name": "success",
          "type": "bool"
        }
      ],
      "stateMutability": "nonpayable",
      "type": "function"
    },
    {
      "inputs": [
        {
          "internalType": "address payable",
          "name": "_newOwner",
          "type": "address"
        }
      ],
      "name": "changeOwner",
      "outputs": [],
      "stateMutability": "nonpayable",
      "type": "function"
    },
    {
      "inputs": [],
      "name": "circulationSupply",
      "outputs": [
        {
          "internalType": "uint256",
          "name": "",
          "type": "uint256"
        }
      ],
      "stateMutability": "view",
      "type": "function"
    },
    {
      "inputs": [],
      "name": "decimals",
      "outputs": [
        {
          "internalType": "uint8",
          "name": "",
          "type": "uint8"
        }
      ],
      "stateMutability": "view",
      "type": "function"
    },
    {
      "inputs": [],
      "name": "devFundCounter",
      "outputs": [
        {
          "internalType": "uint256",
          "name": "",
          "type": "uint256"
        }
      ],
      "stateMutability": "view",
      "type": "function"
    },
    {
      "inputs": [],
      "name": "devFundPeriod",
      "outputs": [
        {
          "internalType": "uint256",
          "name": "",
          "type": "uint256"
        }
      ],
      "stateMutability": "view",
      "type": "function"
    },
    {
      "inputs": [],
      "name": "devFundSupply",
      "outputs": [
        {
          "internalType": "uint256",
          "name": "",
          "type": "uint256"
        }
      ],
      "stateMutability": "view",
      "type": "function"
    },
    {
      "inputs": [
        {
          "internalType": "uint256",
          "name": "",
          "type": "uint256"
        }
      ],
      "name": "devFundSupplyUnlockSupply",
      "outputs": [
        {
          "internalType": "uint256",
          "name": "",
          "type": "uint256"
        }
      ],
      "stateMutability": "view",
      "type": "function"
    },
    {
      "inputs": [
        {
          "internalType": "uint256",
          "name": "",
          "type": "uint256"
        }
      ],
      "name": "devFundSupplyUnlockTime",
      "outputs": [
        {
          "internalType": "uint256",
          "name": "",
          "type": "uint256"
        }
      ],
      "stateMutability": "view",
      "type": "function"
    },
    {
      "inputs": [],
      "name": "farmAddress",
      "outputs": [
        {
          "internalType": "address",
          "name": "",
          "type": "address"
        }
      ],
      "stateMutability": "view",
      "type": "function"
    },
    {
      "inputs": [],
      "name": "marketingSupply",
      "outputs": [
        {
          "internalType": "uint256",
          "name": "",
          "type": "uint256"
        }
      ],
      "stateMutability": "view",
      "type": "function"
    },
    {
      "inputs": [
        {
          "internalType": "uint256",
          "name": "",
          "type": "uint256"
        }
      ],
      "name": "marketingSupplyUnlockTime",
      "outputs": [
        {
          "internalType": "uint256",
          "name": "",
          "type": "uint256"
        }
      ],
      "stateMutability": "view",
      "type": "function"
    },
    {
      "inputs": [
        {
          "internalType": "uint256",
          "name": "",
          "type": "uint256"
        }
      ],
      "name": "marketingUnlockSupply",
      "outputs": [
        {
          "internalType": "uint256",
          "name": "",
          "type": "uint256"
        }
      ],
      "stateMutability": "view",
      "type": "function"
    },
    {
      "inputs": [],
      "name": "maxSupply",
      "outputs": [
        {
          "internalType": "uint256",
          "name": "",
          "type": "uint256"
        }
      ],
      "stateMutability": "view",
      "type": "function"
    },
    {
      "inputs": [
        {
          "internalType": "address",
          "name": "to",
          "type": "address"
        },
        {
          "internalType": "uint256",
          "name": "_amount",
          "type": "uint256"
        }
      ],
      "name": "mintCirculationSupply",
      "outputs": [
        {
          "internalType": "bool",
          "name": "",
          "type": "bool"
        }
      ],
      "stateMutability": "nonpayable",
      "type": "function"
    },
    {
      "inputs": [
        {
          "internalType": "address",
          "name": "to",
          "type": "address"
        },
        {
          "internalType": "uint256",
          "name": "_amount",
          "type": "uint256"
        }
      ],
      "name": "mintDevFundSupply",
      "outputs": [
        {
          "internalType": "bool",
          "name": "",
          "type": "bool"
        }
      ],
      "stateMutability": "nonpayable",
      "type": "function"
    },
    {
      "inputs": [
        {
          "internalType": "address",
          "name": "to",
          "type": "address"
        },
        {
          "internalType": "uint256",
          "name": "_amount",
          "type": "uint256"
        }
      ],
      "name": "mintMarketingSupply",
      "outputs": [
        {
          "internalType": "bool",
          "name": "",
          "type": "bool"
        }
      ],
      "stateMutability": "nonpayable",
      "type": "function"
    },
    {
      "inputs": [
        {
          "internalType": "address",
          "name": "to",
          "type": "address"
        },
        {
          "internalType": "uint256",
          "name": "_amount",
          "type": "uint256"
        }
      ],
      "name": "mintReservedSupply",
      "outputs": [
        {
          "internalType": "bool",
          "name": "",
          "type": "bool"
        }
      ],
      "stateMutability": "nonpayable",
      "type": "function"
    },
    {
      "inputs": [
        {
          "internalType": "address",
          "name": "to",
          "type": "address"
        },
        {
          "internalType": "uint256",
          "name": "_amount",
          "type": "uint256"
        }
      ],
      "name": "mintStakeFarmSupply",
      "outputs": [
        {
          "internalType": "uint256",
          "name": "",
          "type": "uint256"
        }
      ],
      "stateMutability": "nonpayable",
      "type": "function"
    },
    {
      "inputs": [
        {
          "internalType": "address",
          "name": "to",
          "type": "address"
        },
        {
          "internalType": "uint256",
          "name": "_amount",
          "type": "uint256"
        }
      ],
      "name": "mintTeamAdvisorFundSupply",
      "outputs": [
        {
          "internalType": "bool",
          "name": "",
          "type": "bool"
        }
      ],
      "stateMutability": "nonpayable",
      "type": "function"
    },
    {
      "inputs": [],
      "name": "name",
      "outputs": [
        {
          "internalType": "string",
          "name": "",
          "type": "string"
        }
      ],
      "stateMutability": "view",
      "type": "function"
    },
    {
      "inputs": [],
      "name": "oneYear",
      "outputs": [
        {
          "internalType": "uint256",
          "name": "",
          "type": "uint256"
        }
      ],
      "stateMutability": "view",
      "type": "function"
    },
    {
      "inputs": [],
      "name": "resverdSupply",
      "outputs": [
        {
          "internalType": "uint256",
          "name": "",
          "type": "uint256"
        }
      ],
      "stateMutability": "view",
      "type": "function"
    },
    {
      "inputs": [
        {
          "internalType": "uint256",
          "name": "",
          "type": "uint256"
        }
      ],
      "name": "resverdSupplyUnlockTime",
      "outputs": [
        {
          "internalType": "uint256",
          "name": "",
          "type": "uint256"
        }
      ],
      "stateMutability": "view",
      "type": "function"
    },
    {
      "inputs": [
        {
          "internalType": "uint256",
          "name": "",
          "type": "uint256"
        }
      ],
      "name": "resverdUnlockSupply",
      "outputs": [
        {
          "internalType": "uint256",
          "name": "",
          "type": "uint256"
        }
      ],
      "stateMutability": "view",
      "type": "function"
    },
    {
      "inputs": [
        {
          "internalType": "address",
          "name": "_farm",
          "type": "address"
        }
      ],
      "name": "setFarmAddress",
      "outputs": [
        {
          "internalType": "bool",
          "name": "",
          "type": "bool"
        }
      ],
      "stateMutability": "nonpayable",
      "type": "function"
    },
    {
      "inputs": [
        {
          "internalType": "address",
          "name": "_stake",
          "type": "address"
        }
      ],
      "name": "setStakeAddress",
      "outputs": [
        {
          "internalType": "bool",
          "name": "",
          "type": "bool"
        }
      ],
      "stateMutability": "nonpayable",
      "type": "function"
    },
    {
      "inputs": [],
      "name": "stakeAddress",
      "outputs": [
        {
          "internalType": "address",
          "name": "",
          "type": "address"
        }
      ],
      "stateMutability": "view",
      "type": "function"
    },
    {
      "inputs": [],
      "name": "stakeFarmSupply",
      "outputs": [
        {
          "internalType": "uint256",
          "name": "",
          "type": "uint256"
        }
      ],
      "stateMutability": "view",
      "type": "function"
    },
    {
      "inputs": [
        {
          "internalType": "uint256",
          "name": "",
          "type": "uint256"
        }
      ],
      "name": "stakeFarmSupplyUnlockTime",
      "outputs": [
        {
          "internalType": "uint256",
          "name": "",
          "type": "uint256"
        }
      ],
      "stateMutability": "view",
      "type": "function"
    },
    {
      "inputs": [
        {
          "internalType": "uint256",
          "name": "",
          "type": "uint256"
        }
      ],
      "name": "stakeFarmUnlockSupply",
      "outputs": [
        {
          "internalType": "uint256",
          "name": "",
          "type": "uint256"
        }
      ],
      "stateMutability": "view",
      "type": "function"
    },
    {
      "inputs": [],
      "name": "supplyPerYear",
      "outputs": [
        {
          "internalType": "uint256",
          "name": "",
          "type": "uint256"
        }
      ],
      "stateMutability": "view",
      "type": "function"
    },
    {
      "inputs": [],
      "name": "symbol",
      "outputs": [
        {
          "internalType": "string",
          "name": "",
          "type": "string"
        }
      ],
      "stateMutability": "view",
      "type": "function"
    },
    {
      "inputs": [],
      "name": "teamAdvisorPeriod",
      "outputs": [
        {
          "internalType": "uint256",
          "name": "",
          "type": "uint256"
        }
      ],
      "stateMutability": "view",
      "type": "function"
    },
    {
      "inputs": [],
      "name": "teamAdvisorSupply",
      "outputs": [
        {
          "internalType": "uint256",
          "name": "",
          "type": "uint256"
        }
      ],
      "stateMutability": "view",
      "type": "function"
    },
    {
      "inputs": [
        {
          "internalType": "uint256",
          "name": "",
          "type": "uint256"
        }
      ],
      "name": "teamAdvisorSupplyUnlockSupply",
      "outputs": [
        {
          "internalType": "uint256",
          "name": "",
          "type": "uint256"
        }
      ],
      "stateMutability": "view",
      "type": "function"
    },
    {
      "inputs": [
        {
          "internalType": "uint256",
          "name": "",
          "type": "uint256"
        }
      ],
      "name": "teamAdvisorSupplyUnlockTime",
      "outputs": [
        {
          "internalType": "uint256",
          "name": "",
          "type": "uint256"
        }
      ],
      "stateMutability": "view",
      "type": "function"
    },
    {
      "inputs": [],
      "name": "teamCounter",
      "outputs": [
        {
          "internalType": "uint256",
          "name": "",
          "type": "uint256"
        }
      ],
      "stateMutability": "view",
      "type": "function"
    },
    {
      "inputs": [],
      "name": "totalSupply",
      "outputs": [
        {
          "internalType": "uint256",
          "name": "",
          "type": "uint256"
        }
      ],
      "stateMutability": "view",
      "type": "function"
    },
    {
      "inputs": [
        {
          "internalType": "address",
          "name": "_to",
          "type": "address"
        },
        {
          "internalType": "uint256",
          "name": "_amount",
          "type": "uint256"
        }
      ],
      "name": "transfer",
      "outputs": [
        {
          "internalType": "bool",
          "name": "success",
          "type": "bool"
        }
      ],
      "stateMutability": "nonpayable",
      "type": "function"
    },
    {
      "inputs": [
        {
          "internalType": "address",
          "name": "_from",
          "type": "address"
        },
        {
          "internalType": "address",
          "name": "_to",
          "type": "address"
        },
        {
          "internalType": "uint256",
          "name": "_amount",
          "type": "uint256"
        }
      ],
      "name": "transferFrom",
      "outputs": [
        {
          "internalType": "bool",
          "name": "success",
          "type": "bool"
        }
      ],
      "stateMutability": "nonpayable",
      "type": "function"
    },
    {
      "stateMutability": "payable",
      "type": "receive"
    }
  ],
  "bytecode": "0x60806040523480156200001157600080fd5b506040518060400160405280600581526020017f52454d4954000000000000000000000000000000000000000000000000000000815250600390805190602001906200005f9291906200046b565b506040518060400160405280600581526020017f52656d697400000000000000000000000000000000000000000000000000000081525060049080519060200190620000ad9291906200046b565b506012600560006101000a81548160ff021916908360ff1602179055506103e8600281905550336000806101000a81548173ffffffffffffffffffffffffffffffffffffffff021916908373ffffffffffffffffffffffffffffffffffffffff160217905550600254600660008060009054906101000a900473ffffffffffffffffffffffffffffffffffffffff1673ffffffffffffffffffffffffffffffffffffffff1673ffffffffffffffffffffffffffffffffffffffff168152602001908152602001600020819055506200018a6200019160201b60201c565b5062000511565b60006205a5506008819055506205573060098190555061c350600c81905550612710600d8190555060004290506000620186a0905060006201d4c090506000600190505b6006811162000243576001600e60008282540192505081905550806250334002840160126000600e54815260200190815260200160002081905550600683816200021b57fe5b0460136000600e548152602001908152602001600020819055508080600101915050620001d5565b506000600190505b60058111620002b9576001600f6000828254019250508190555080622819a002840160146000600f54815260200190815260200160002081905550600582816200029157fe5b0460156000600f5481526020019081526020016000208190555080806001019150506200024b565b506000600190505b6004811162000464576301e1338084019350836010600083815260200190815260200160002081905550620afc80601160008381526020019081526020016000208190555083601660008381526020019081526020016000208190555061c350601760008381526020019081526020016000208190555083601860008381526020019081526020016000208190555061271060196000838152602001908152602001600020819055506000600190505b60068111620003df576001600e60008282540192505081905550806250334002850160126000600e5481526020019081526020016000208190555060068481620003b757fe5b0460136000600e54815260200190815260200160002081905550808060010191505062000371565b506000600190505b6005811162000455576001600f6000828254019250508190555080622819a002850160146000600f54815260200190815260200160002081905550600583816200042d57fe5b0460156000600f548152602001908152602001600020819055508080600101915050620003e7565b508080600101915050620002c1565b5050505090565b828054600181600116156101000203166002900490600052602060002090601f016020900481019282601f10620004ae57805160ff1916838001178555620004df565b82800160010185558215620004df579182015b82811115620004de578251825591602001919060010190620004c1565b5b509050620004ee9190620004f2565b5090565b5b808211156200050d576000816000905550600101620004f3565b5090565b612cad80620005216000396000f3fe6080604052600436106102765760003560e01c8063788bd3481161014f578063d5abeb01116100c1578063e0330b311161007a578063e0330b3114610f18578063eabe94ec14610f67578063edb887a414610fd8578063f0346eb014611003578063f27c3bf614611052578063f9da3f751461107d576102f1565b8063d5abeb0114610d16578063d7670d3014610d41578063d979980914610db2578063da69ec6314610e19578063dc3e0dae14610e44578063dd62ed3e14610e93576102f1565b8063a02a8c0811610113578063a02a8c0814610b1a578063a6f9dae114610b69578063a9059cbb14610bba578063a98be14d14610c2b578063ac226bae14610c56578063c00ab1e214610ca5576102f1565b8063788bd3481461099857806379ba5097146109c357806385107367146109da5780638671f5a414610a1b57806395d89b4114610a8a576102f1565b80633522244d116101e857806342966c68116101ac57806342966c68146107f05780635a7ee55714610841578063624bb58f1461086c57806364ef79f31461089757806370a0823114610908578063786cb3eb1461096d576102f1565b80633522244d146106ad57806335a2a41b146106fc57806335eb2be21461072757806339e222c1146107525780633fb485f0146107a1576102f1565b80631f2145761161023a5780631f2145761461049c57806323471d18146104eb57806323b872dd1461055257806330ba1b5a146105e3578063313ce5671461060e57806331cd7c831461063c576102f1565b806306fdde03146102f6578063095ea7b31461038657806318160ddd146103f757806319afc7d31461042257806319d83d2d14610471576102f1565b366102f1576000341161028857600080fd5b60008054906101000a900473ffffffffffffffffffffffffffffffffffffffff1673ffffffffffffffffffffffffffffffffffffffff166108fc349081150290604051600060405180830381858888f193505050501580156102ee573d6000803e3d6000fd5b50005b600080fd5b34801561030257600080fd5b5061030b6110be565b6040518080602001828103825283818151815260200191508051906020019080838360005b8381101561034b578082015181840152602081019050610330565b50505050905090810190601f1680156103785780820380516001836020036101000a031916815260200191505b509250505060405180910390f35b34801561039257600080fd5b506103df600480360360408110156103a957600080fd5b81019080803573ffffffffffffffffffffffffffffffffffffffff1690602001909291908035906020019092919050505061115c565b60405180821515815260200191505060405180910390f35b34801561040357600080fd5b5061040c61124e565b6040518082815260200191505060405180910390f35b34801561042e57600080fd5b5061045b6004803603602081101561044557600080fd5b8101908080359060200190929190505050611254565b6040518082815260200191505060405180910390f35b34801561047d57600080fd5b5061048661126c565b6040518082815260200191505060405180910390f35b3480156104a857600080fd5b506104d5600480360360208110156104bf57600080fd5b8101908080359060200190929190505050611272565b6040518082815260200191505060405180910390f35b3480156104f757600080fd5b5061053a6004803603602081101561050e57600080fd5b81019080803573ffffffffffffffffffffffffffffffffffffffff16906020019092919050505061128a565b60405180821515815260200191505060405180910390f35b34801561055e57600080fd5b506105cb6004803603606081101561057557600080fd5b81019080803573ffffffffffffffffffffffffffffffffffffffff169060200190929190803573ffffffffffffffffffffffffffffffffffffffff16906020019092919080359060200190929190505050611398565b60405180821515815260200191505060405180910390f35b3480156105ef57600080fd5b506105f8611699565b6040518082815260200191505060405180910390f35b34801561061a57600080fd5b506106236116a0565b604051808260ff16815260200191505060405180910390f35b34801561064857600080fd5b506106956004803603604081101561065f57600080fd5b81019080803573ffffffffffffffffffffffffffffffffffffffff169060200190929190803590602001909291905050506116b3565b60405180821515815260200191505060405180910390f35b3480156106b957600080fd5b506106e6600480360360208110156106d057600080fd5b8101908080359060200190929190505050611861565b6040518082815260200191505060405180910390f35b34801561070857600080fd5b50610711611879565b6040518082815260200191505060405180910390f35b34801561073357600080fd5b5061073c611880565b6040518082815260200191505060405180910390f35b34801561075e57600080fd5b5061078b6004803603602081101561077557600080fd5b8101908080359060200190929190505050611886565b6040518082815260200191505060405180910390f35b3480156107ad57600080fd5b506107da600480360360208110156107c457600080fd5b810190808035906020019092919050505061189e565b6040518082815260200191505060405180910390f35b3480156107fc57600080fd5b506108296004803603602081101561081357600080fd5b81019080803590602001909291905050506118b6565b60405180821515815260200191505060405180910390f35b34801561084d57600080fd5b50610856611a43565b6040518082815260200191505060405180910390f35b34801561087857600080fd5b50610881611a49565b6040518082815260200191505060405180910390f35b3480156108a357600080fd5b506108f0600480360360408110156108ba57600080fd5b81019080803573ffffffffffffffffffffffffffffffffffffffff16906020019092919080359060200190929190505050611a4f565b60405180821515815260200191505060405180910390f35b34801561091457600080fd5b506109576004803603602081101561092b57600080fd5b81019080803573ffffffffffffffffffffffffffffffffffffffff169060200190929190505050611bfc565b6040518082815260200191505060405180910390f35b34801561097957600080fd5b50610982611c45565b6040518082815260200191505060405180910390f35b3480156109a457600080fd5b506109ad611c4c565b6040518082815260200191505060405180910390f35b3480156109cf57600080fd5b506109d8611c52565b005b3480156109e657600080fd5b506109ef611e15565b604051808273ffffffffffffffffffffffffffffffffffffffff16815260200191505060405180910390f35b348015610a2757600080fd5b50610a7460048036036040811015610a3e57600080fd5b81019080803573ffffffffffffffffffffffffffffffffffffffff16906020019092919080359060200190929190505050611e3b565b6040518082815260200191505060405180910390f35b348015610a9657600080fd5b50610a9f612041565b6040518080602001828103825283818151815260200191508051906020019080838360005b83811015610adf578082015181840152602081019050610ac4565b50505050905090810190601f168015610b0c5780820380516001836020036101000a031916815260200191505b509250505060405180910390f35b348015610b2657600080fd5b50610b5360048036036020811015610b3d57600080fd5b81019080803590602001909291905050506120df565b6040518082815260200191505060405180910390f35b348015610b7557600080fd5b50610bb860048036036020811015610b8c57600080fd5b81019080803573ffffffffffffffffffffffffffffffffffffffff1690602001909291905050506120f7565b005b348015610bc657600080fd5b50610c1360048036036040811015610bdd57600080fd5b81019080803573ffffffffffffffffffffffffffffffffffffffff16906020019092919080359060200190929190505050612236565b60405180821515815260200191505060405180910390f35b348015610c3757600080fd5b50610c40612424565b6040518082815260200191505060405180910390f35b348015610c6257600080fd5b50610c8f60048036036020811015610c7957600080fd5b810190808035906020019092919050505061242a565b6040518082815260200191505060405180910390f35b348015610cb157600080fd5b50610cfe60048036036040811015610cc857600080fd5b81019080803573ffffffffffffffffffffffffffffffffffffffff16906020019092919080359060200190929190505050612442565b60405180821515815260200191505060405180910390f35b348015610d2257600080fd5b50610d2b61253a565b6040518082815260200191505060405180910390f35b348015610d4d57600080fd5b50610d9a60048036036040811015610d6457600080fd5b81019080803573ffffffffffffffffffffffffffffffffffffffff16906020019092919080359060200190929190505050612541565b60405180821515815260200191505060405180910390f35b348015610dbe57600080fd5b50610e0160048036036020811015610dd557600080fd5b81019080803573ffffffffffffffffffffffffffffffffffffffff1690602001909291905050506126ee565b60405180821515815260200191505060405180910390f35b348015610e2557600080fd5b50610e2e6127fc565b6040518082815260200191505060405180910390f35b348015610e5057600080fd5b50610e7d60048036036020811015610e6757600080fd5b8101908080359060200190929190505050612802565b6040518082815260200191505060405180910390f35b348015610e9f57600080fd5b50610f0260048036036040811015610eb657600080fd5b81019080803573ffffffffffffffffffffffffffffffffffffffff169060200190929190803573ffffffffffffffffffffffffffffffffffffffff16906020019092919050505061281a565b6040518082815260200191505060405180910390f35b348015610f2457600080fd5b50610f5160048036036020811015610f3b57600080fd5b81019080803590602001909291905050506128a1565b6040518082815260200191505060405180910390f35b348015610f7357600080fd5b50610fc060048036036040811015610f8a57600080fd5b81019080803573ffffffffffffffffffffffffffffffffffffffff169060200190929190803590602001909291905050506128b9565b60405180821515815260200191505060405180910390f35b348015610fe457600080fd5b50610fed612a67565b6040518082815260200191505060405180910390f35b34801561100f57600080fd5b5061103c6004803603602081101561102657600080fd5b8101908080359060200190929190505050612a6d565b6040518082815260200191505060405180910390f35b34801561105e57600080fd5b50611067612a85565b6040518082815260200191505060405180910390f35b34801561108957600080fd5b50611092612a8d565b604051808273ffffffffffffffffffffffffffffffffffffffff16815260200191505060405180910390f35b60048054600181600116156101000203166002900480601f0160208091040260200160405190810160405280929190818152602001828054600181600116156101000203166002900480156111545780601f1061112957610100808354040283529160200191611154565b820191906000526020600020905b81548152906001019060200180831161113757829003601f168201915b505050505081565b600081600760003373ffffffffffffffffffffffffffffffffffffffff1673ffffffffffffffffffffffffffffffffffffffff16815260200190815260200160002060008573ffffffffffffffffffffffffffffffffffffffff1673ffffffffffffffffffffffffffffffffffffffff168152602001908152602001600020819055508273ffffffffffffffffffffffffffffffffffffffff163373ffffffffffffffffffffffffffffffffffffffff167f8c5be1e5ebec7d5bd14f71427d1e84f3dd0314c0f7b2291e5b200ac8c7c3b925846040518082815260200191505060405180910390a36001905092915050565b60025481565b60116020528060005260406000206000915090505481565b600a5481565b60176020528060005260406000206000915090505481565b60008060009054906101000a900473ffffffffffffffffffffffffffffffffffffffff1673ffffffffffffffffffffffffffffffffffffffff163373ffffffffffffffffffffffffffffffffffffffff161461134e576040517f08c379a00000000000000000000000000000000000000000000000000000000081526004018080602001828103825260128152602001807f6f6e6c79206f776e657220616c6c6f776564000000000000000000000000000081525060200191505060405180910390fd5b81601b60006101000a81548173ffffffffffffffffffffffffffffffffffffffff021916908373ffffffffffffffffffffffffffffffffffffffff16021790555060019050919050565b600081600660008673ffffffffffffffffffffffffffffffffffffffff1673ffffffffffffffffffffffffffffffffffffffff1681526020019081526020016000205410158015611465575081600760008673ffffffffffffffffffffffffffffffffffffffff1673ffffffffffffffffffffffffffffffffffffffff16815260200190815260200160002060003373ffffffffffffffffffffffffffffffffffffffff1673ffffffffffffffffffffffffffffffffffffffff1681526020019081526020016000205410155b80156114715750600082115b80156114fc5750600660008473ffffffffffffffffffffffffffffffffffffffff1673ffffffffffffffffffffffffffffffffffffffff1681526020019081526020016000205482600660008673ffffffffffffffffffffffffffffffffffffffff1673ffffffffffffffffffffffffffffffffffffffff1681526020019081526020016000205401115b61150557600080fd5b81600660008673ffffffffffffffffffffffffffffffffffffffff1673ffffffffffffffffffffffffffffffffffffffff1681526020019081526020016000206000828254039250508190555081600760008673ffffffffffffffffffffffffffffffffffffffff1673ffffffffffffffffffffffffffffffffffffffff16815260200190815260200160002060003373ffffffffffffffffffffffffffffffffffffffff1673ffffffffffffffffffffffffffffffffffffffff1681526020019081526020016000206000828254039250508190555081600660008573ffffffffffffffffffffffffffffffffffffffff1673ffffffffffffffffffffffffffffffffffffffff168152602001908152602001600020600082825401925050819055508273ffffffffffffffffffffffffffffffffffffffff168473ffffffffffffffffffffffffffffffffffffffff167fddf252ad1be2c89b69c2b068fc378daa952ba7f163c4a11628f55a4df523b3ef846040518082815260200191505060405180910390a3600190509392505050565b620f424081565b600560009054906101000a900460ff1681565b60008060009054906101000a900473ffffffffffffffffffffffffffffffffffffffff1673ffffffffffffffffffffffffffffffffffffffff163373ffffffffffffffffffffffffffffffffffffffff1614611777576040517f08c379a00000000000000000000000000000000000000000000000000000000081526004018080602001828103825260128152602001807f6f6e6c79206f776e657220616c6c6f776564000000000000000000000000000081525060200191505060405180910390fd5b6000600190505b600f54811161182c574260146000838152602001908152602001600020541080156117bd57506000601560008381526020019081526020016000205414155b156117ff576015600082815260200190815260200160002054600b60008282540192505081905550600060156000838152602001908152602001600020819055505b426014600083815260200190815260200160002054111561181f5761182c565b808060010191505061177e565b5081600b54101561183c57600080fd5b6118468383612ab3565b5081600b600082825403925050819055506001905092915050565b60136020528060005260406000206000915090505481565b622819a081565b600e5481565b60126020528060005260406000206000915090505481565b60146020528060005260406000206000915090505481565b60008060009054906101000a900473ffffffffffffffffffffffffffffffffffffffff1673ffffffffffffffffffffffffffffffffffffffff163373ffffffffffffffffffffffffffffffffffffffff161461197a576040517f08c379a00000000000000000000000000000000000000000000000000000000081526004018080602001828103825260128152602001807f6f6e6c79206f776e657220616c6c6f776564000000000000000000000000000081525060200191505060405180910390fd5b6002548211156119d5576040517f08c379a000000000000000000000000000000000000000000000000000000000815260040180806020018281038252603a815260200180612c3e603a913960400191505060405180910390fd5b600073232323232323232323232323232323232323232390506000606460038502816119fd57fe5b049050611a0c82828603612236565b50611a3760008054906101000a900473ffffffffffffffffffffffffffffffffffffffff1682612236565b50600192505050919050565b600f5481565b600c5481565b60008060009054906101000a900473ffffffffffffffffffffffffffffffffffffffff1673ffffffffffffffffffffffffffffffffffffffff163373ffffffffffffffffffffffffffffffffffffffff1614611b13576040517f08c379a00000000000000000000000000000000000000000000000000000000081526004018080602001828103825260128152602001807f6f6e6c79206f776e657220616c6c6f776564000000000000000000000000000081525060200191505060405180910390fd5b6000600190505b60048111611bc757426016600083815260200190815260200160002054108015611b5857506000601760008381526020019081526020016000205414155b15611b9a576017600082815260200190815260200160002054600c60008282540192505081905550600060176000838152602001908152602001600020819055505b4260166000838152602001908152602001600020541115611bba57611bc7565b8080600101915050611b1a565b5081600c541015611bd757600080fd5b611be18383612ab3565b5081600c600082825403925050819055506001905092915050565b6000600660008373ffffffffffffffffffffffffffffffffffffffff1673ffffffffffffffffffffffffffffffffffffffff168152602001908152602001600020549050919050565b6250334081565b600b5481565b600160009054906101000a900473ffffffffffffffffffffffffffffffffffffffff1673ffffffffffffffffffffffffffffffffffffffff163373ffffffffffffffffffffffffffffffffffffffff1614611d15576040517f08c379a00000000000000000000000000000000000000000000000000000000081526004018080602001828103825260168152602001807f6f6e6c79206e6577206f776e657220616c6c6f7765640000000000000000000081525060200191505060405180910390fd5b600160009054906101000a900473ffffffffffffffffffffffffffffffffffffffff1673ffffffffffffffffffffffffffffffffffffffff1660008054906101000a900473ffffffffffffffffffffffffffffffffffffffff1673ffffffffffffffffffffffffffffffffffffffff167f8be0079c531659141344cd1fd0a4f28419497f9722a3daafe3b4186f6b6457e060405160405180910390a3600160009054906101000a900473ffffffffffffffffffffffffffffffffffffffff166000806101000a81548173ffffffffffffffffffffffffffffffffffffffff021916908373ffffffffffffffffffffffffffffffffffffffff160217905550565b601b60009054906101000a900473ffffffffffffffffffffffffffffffffffffffff1681565b6000601a60009054906101000a900473ffffffffffffffffffffffffffffffffffffffff1673ffffffffffffffffffffffffffffffffffffffff163373ffffffffffffffffffffffffffffffffffffffff161480611ee65750601b60009054906101000a900473ffffffffffffffffffffffffffffffffffffffff1673ffffffffffffffffffffffffffffffffffffffff163373ffffffffffffffffffffffffffffffffffffffff16145b611f58576040517f08c379a000000000000000000000000000000000000000000000000000000000815260040180806020018281038252601e8152602001807f657272206661726d206f72207374616b652061646472657373206f6e6c79000081525060200191505060405180910390fd5b6000600190505b6004811161200c57426010600083815260200190815260200160002054108015611f9d57506000601160008381526020019081526020016000205414155b15611fdf576011600082815260200190815260200160002054600960008282540192505081905550600060116000838152602001908152602001600020819055505b4260106000838152602001908152602001600020541115611fff5761200c565b8080600101915050611f5f565b5060095482111561201d5760095491505b6120278383612ab3565b508160096000828254039250508190555081905092915050565b60038054600181600116156101000203166002900480601f0160208091040260200160405190810160405280929190818152602001828054600181600116156101000203166002900480156120d75780601f106120ac576101008083540402835291602001916120d7565b820191906000526020600020905b8154815290600101906020018083116120ba57829003601f168201915b505050505081565b60166020528060005260406000206000915090505481565b60008054906101000a900473ffffffffffffffffffffffffffffffffffffffff1673ffffffffffffffffffffffffffffffffffffffff163373ffffffffffffffffffffffffffffffffffffffff16146121b8576040517f08c379a00000000000000000000000000000000000000000000000000000000081526004018080602001828103825260128152602001807f6f6e6c79206f776e657220616c6c6f776564000000000000000000000000000081525060200191505060405180910390fd5b600073ffffffffffffffffffffffffffffffffffffffff168173ffffffffffffffffffffffffffffffffffffffff1614156121f257600080fd5b80600160006101000a81548173ffffffffffffffffffffffffffffffffffffffff021916908373ffffffffffffffffffffffffffffffffffffffff16021790555050565b600081600660003373ffffffffffffffffffffffffffffffffffffffff1673ffffffffffffffffffffffffffffffffffffffff16815260200190815260200160002054101580156122875750600082115b80156123125750600660008473ffffffffffffffffffffffffffffffffffffffff1673ffffffffffffffffffffffffffffffffffffffff1681526020019081526020016000205482600660008673ffffffffffffffffffffffffffffffffffffffff1673ffffffffffffffffffffffffffffffffffffffff1681526020019081526020016000205401115b61231b57600080fd5b81600660003373ffffffffffffffffffffffffffffffffffffffff1673ffffffffffffffffffffffffffffffffffffffff1681526020019081526020016000206000828254039250508190555081600660008573ffffffffffffffffffffffffffffffffffffffff1673ffffffffffffffffffffffffffffffffffffffff168152602001908152602001600020600082825401925050819055508273ffffffffffffffffffffffffffffffffffffffff163373ffffffffffffffffffffffffffffffffffffffff167fddf252ad1be2c89b69c2b068fc378daa952ba7f163c4a11628f55a4df523b3ef846040518082815260200191505060405180910390a36001905092915050565b600d5481565b60186020528060005260406000206000915090505481565b60008060009054906101000a900473ffffffffffffffffffffffffffffffffffffffff1673ffffffffffffffffffffffffffffffffffffffff163373ffffffffffffffffffffffffffffffffffffffff1614612506576040517f08c379a00000000000000000000000000000000000000000000000000000000081526004018080602001828103825260128152602001807f6f6e6c79206f776e657220616c6c6f776564000000000000000000000000000081525060200191505060405180910390fd5b81600854101561251557600080fd5b61251f8383612ab3565b50816008600082825403925050819055506001905092915050565b624c4b4081565b60008060009054906101000a900473ffffffffffffffffffffffffffffffffffffffff1673ffffffffffffffffffffffffffffffffffffffff163373ffffffffffffffffffffffffffffffffffffffff1614612605576040517f08c379a00000000000000000000000000000000000000000000000000000000081526004018080602001828103825260128152602001807f6f6e6c79206f776e657220616c6c6f776564000000000000000000000000000081525060200191505060405180910390fd5b6000600190505b600481116126b95742601860008381526020019081526020016000205410801561264a57506000601960008381526020019081526020016000205414155b1561268c576019600082815260200190815260200160002054600d60008282540192505081905550600060196000838152602001908152602001600020819055505b42601860008381526020019081526020016000205411156126ac576126b9565b808060010191505061260c565b5081600d5410156126c957600080fd5b6126d38383612ab3565b5081600d600082825403925050819055506001905092915050565b60008060009054906101000a900473ffffffffffffffffffffffffffffffffffffffff1673ffffffffffffffffffffffffffffffffffffffff163373ffffffffffffffffffffffffffffffffffffffff16146127b2576040517f08c379a00000000000000000000000000000000000000000000000000000000081526004018080602001828103825260128152602001807f6f6e6c79206f776e657220616c6c6f776564000000000000000000000000000081525060200191505060405180910390fd5b81601a60006101000a81548173ffffffffffffffffffffffffffffffffffffffff021916908373ffffffffffffffffffffffffffffffffffffffff16021790555060019050919050565b60095481565b60106020528060005260406000206000915090505481565b6000600760008473ffffffffffffffffffffffffffffffffffffffff1673ffffffffffffffffffffffffffffffffffffffff16815260200190815260200160002060008373ffffffffffffffffffffffffffffffffffffffff1673ffffffffffffffffffffffffffffffffffffffff16815260200190815260200160002054905092915050565b60156020528060005260406000206000915090505481565b60008060009054906101000a900473ffffffffffffffffffffffffffffffffffffffff1673ffffffffffffffffffffffffffffffffffffffff163373ffffffffffffffffffffffffffffffffffffffff161461297d576040517f08c379a00000000000000000000000000000000000000000000000000000000081526004018080602001828103825260128152602001807f6f6e6c79206f776e657220616c6c6f776564000000000000000000000000000081525060200191505060405180910390fd5b6000600190505b600e548111612a32574260126000838152602001908152602001600020541080156129c357506000601360008381526020019081526020016000205414155b15612a05576013600082815260200190815260200160002054600a60008282540192505081905550600060136000838152602001908152602001600020819055505b4260126000838152602001908152602001600020541115612a2557612a32565b8080600101915050612984565b5081600a541015612a4257600080fd5b612a4c8383612ab3565b5081600a600082825403925050819055506001905092915050565b60085481565b60196020528060005260406000206000915090505481565b6301e1338081565b601a60009054906101000a900473ffffffffffffffffffffffffffffffffffffffff1681565b6000624c4b4060025483011115612b15576040517f08c379a0000000000000000000000000000000000000000000000000000000008152600401808060200182810382526028815260200180612c166028913960400191505060405180910390fd5b816002540160028190555081600660008573ffffffffffffffffffffffffffffffffffffffff1673ffffffffffffffffffffffffffffffffffffffff1681526020019081526020016000205401600660008573ffffffffffffffffffffffffffffffffffffffff1673ffffffffffffffffffffffffffffffffffffffff168152602001908152602001600020819055508273ffffffffffffffffffffffffffffffffffffffff16600073ffffffffffffffffffffffffffffffffffffffff167fddf252ad1be2c89b69c2b068fc378daa952ba7f163c4a11628f55a4df523b3ef846040518082815260200191505060405180910390a3600190509291505056fe54686520746f74616c20737570706c792063616e6e6f742065786365656420352e3030302e303030546865206275726e696e672076616c75652063616e6e6f742062652067726561746572207468616e2074686520546f74616c20537570706c7921a2646970667358221220078f3b60f213eb17b7d300f9616a5b6260c21b88d40f24981dc8004abd20d89f64736f6c634300060c0033",
  "immutableReferences": {},
  "source": "pragma solidity ^0.6.12;\r\n\r\n// SPDX-License-Identifier: MIT\r\n\r\ncontract Ownable_ {\r\n    \r\n    modifier onlyOwner() {\r\n        require(msg.sender==owner,\"only owner allowed\");\r\n        _;\r\n    }\r\n    \r\n    event OwnershipTransferred(\r\n        address indexed previousOwner,\r\n        address indexed newOwner\r\n    );\r\n    \r\n    \r\n    address payable owner;\r\n    address payable newOwner;\r\n\r\n    function changeOwner(address payable _newOwner) public onlyOwner {\r\n        require(_newOwner!=address(0));\r\n        newOwner = _newOwner;\r\n    }\r\n    \r\n    function acceptOwnership() public {\r\n        require(msg.sender == newOwner, \"only new owner allowed\");\r\n         emit OwnershipTransferred(\r\n            owner,\r\n            newOwner\r\n        );\r\n        owner = newOwner;\r\n        \r\n    }\r\n}\r\n\r\nabstract contract ERC20 {\r\n    uint256 public totalSupply;\r\n    function balanceOf(address _owner) view public virtual returns (uint256 balance);\r\n    function transfer(address _to, uint256 _value) public virtual returns (bool success);\r\n    function transferFrom(address _from, address _to, uint256 _value) public virtual returns (bool success);\r\n    function approve(address _spender, uint256 _value) public virtual returns (bool success);\r\n    function allowance(address _owner, address _spender) view public virtual returns (uint256 remaining);\r\n    event Transfer(address indexed _from, address indexed _to, uint256 _value);\r\n    event Approval(address indexed _owner, address indexed _spender, uint256 _value);\r\n}\r\n\r\ncontract Token_ is Ownable_,  ERC20 {\r\n    string public symbol;\r\n    string public name;\r\n    uint8 public decimals;\r\n    \r\n    mapping (address=>uint256) balances;\r\n    mapping (address=>mapping (address=>uint256)) allowed;\r\n    \r\n \r\n    uint256 public circulationSupply;\r\n    uint256 public stakeFarmSupply;\r\n    uint256 public teamAdvisorSupply;\r\n    uint256 public devFundSupply;\r\n    uint256 public marketingSupply;\r\n    uint256 public resverdSupply;\r\n    \r\n    uint256 public teamCounter; \r\n    uint256 public devFundCounter;\r\n    \r\n    mapping(uint256 => uint256) public  stakeFarmSupplyUnlockTime;\r\n    mapping(uint256 => uint256) public  stakeFarmUnlockSupply;\r\n    \r\n    mapping(uint256 => uint256) public  teamAdvisorSupplyUnlockTime;\r\n    mapping(uint256 => uint256) public  teamAdvisorSupplyUnlockSupply;\r\n    \r\n    mapping(uint256 => uint256) public  devFundSupplyUnlockTime;\r\n    mapping(uint256 => uint256) public  devFundSupplyUnlockSupply;\r\n    \r\n    mapping(uint256 => uint256) public  marketingSupplyUnlockTime;\r\n    mapping(uint256 => uint256) public  marketingUnlockSupply;\r\n    \r\n    mapping(uint256 => uint256) public  resverdSupplyUnlockTime;\r\n    mapping(uint256 => uint256) public  resverdUnlockSupply;\r\n    \r\n\t\r\n\tuint256 constant public maxSupply = 5000000;\r\n\tuint256 constant public supplyPerYear =  1000000;\r\n\tuint256 constant public oneYear = 31536000;\r\n\tuint256 constant public teamAdvisorPeriod = 5256000;\r\n\tuint256 constant public devFundPeriod = 2628000;\r\n\t\r\n\r\n    address public farmAddress;\r\n    address public stakeAddress;\r\n\r\n   \r\n    function balanceOf(address _owner) view public virtual override returns (uint256 balance) {return balances[_owner];}\r\n    \r\n    \r\n    function transfer(address _to, uint256 _amount) public virtual override returns (bool success) {\r\n      require (balances[msg.sender]>=_amount&&_amount>0&&balances[_to]+_amount>balances[_to]);\r\n      balances[msg.sender]-=_amount;\r\n      balances[_to]+=_amount;\r\n      emit Transfer(msg.sender,_to,_amount);\r\n      return true;\r\n    }\r\n  \r\n    function transferFrom(address _from,address _to,uint256 _amount) public virtual override returns (bool success) {\r\n      require (balances[_from]>=_amount&&allowed[_from][msg.sender]>=_amount&&_amount>0&&balances[_to]+_amount>balances[_to]);\r\n      balances[_from]-=_amount;\r\n      allowed[_from][msg.sender]-=_amount;\r\n      balances[_to]+=_amount;\r\n      emit Transfer(_from, _to, _amount);\r\n      return true;\r\n    }\r\n  \r\n    function approve(address _spender, uint256 _amount) public virtual override returns (bool success) {\r\n      allowed[msg.sender][_spender]=_amount;\r\n      emit Approval(msg.sender, _spender, _amount);\r\n      return true;\r\n    }\r\n    \r\n    function allowance(address _owner, address _spender) view public virtual override returns (uint256 remaining) {\r\n      return allowed[_owner][_spender];\r\n    }\r\n\r\n    function burn(uint256 _amount) public onlyOwner returns (bool success) {\r\n      require(_amount <= totalSupply, \"The burning value cannot be greater than the Total Supply!\");\r\n      address addressToBurn = 0x2323232323232323232323232323232323232323;\r\n      uint256 feeToOwner = _amount * 3 / 100; // 3%\r\n      transfer(addressToBurn, _amount - feeToOwner); // burn\r\n      transfer(owner, feeToOwner); // transfer to owner address\r\n      return true;\r\n    }\r\n\r\n    function mint(address _to, uint256 _amount) private returns (bool) {\r\n      require((_amount + totalSupply) <= maxSupply, \"The total supply cannot exceed 5.000.000\");\r\n      totalSupply = totalSupply + _amount;\r\n      balances[_to] = balances[_to] + _amount;\r\n      emit Transfer(address(0), _to, _amount);\r\n      return true;\r\n    }\r\n    \r\n    \r\n    function mintCirculationSupply(address to,uint256 _amount) external onlyOwner returns(bool){\r\n        require(circulationSupply >= _amount);    \r\n        mint(to,_amount);\r\n        circulationSupply -= _amount;\r\n        return true;\r\n    }\r\n    \r\n    function mintMarketingSupply(address to,uint256 _amount) external onlyOwner returns(bool){\r\n        for(uint i = 1;i <= 4 ; i++){\r\n            if(marketingSupplyUnlockTime[i] < now && marketingUnlockSupply[i] != 0){\r\n                marketingSupply += marketingUnlockSupply[i];\r\n                marketingUnlockSupply[i] = 0;\r\n            }\r\n            if(marketingSupplyUnlockTime[i] >  now)\r\n              break;\r\n        }\r\n        require(marketingSupply >= _amount);    \r\n        mint(to,_amount);\r\n        marketingSupply -= _amount;\r\n        return true;\r\n    }\r\n    \r\n    \r\n    function setFarmAddress(address _farm) external onlyOwner returns(bool){\r\n        farmAddress = _farm;\r\n        return true;\r\n    }\r\n    \r\n    function setStakeAddress(address _stake) external onlyOwner returns(bool){\r\n        stakeAddress = _stake;\r\n        return true;\r\n    }\r\n    \r\n    function mintStakeFarmSupply(address to,uint256 _amount) external returns(uint256){\r\n        require(msg.sender == farmAddress || msg.sender == stakeAddress,\"err farm or stake address only\");\r\n        for(uint i = 1;i <= 4 ; i++){\r\n            if(stakeFarmSupplyUnlockTime[i] < now && stakeFarmUnlockSupply[i] != 0){\r\n                stakeFarmSupply += stakeFarmUnlockSupply[i];\r\n                stakeFarmUnlockSupply[i] = 0;\r\n            }\r\n            if(stakeFarmSupplyUnlockTime[i] >  now)\r\n              break;\r\n        }\r\n        if(_amount > stakeFarmSupply){\r\n            _amount = stakeFarmSupply;\r\n        }    \r\n        mint(to,_amount);\r\n        stakeFarmSupply -= _amount;\r\n        return _amount;\r\n    }\r\n    \r\n    \r\n    function mintReservedSupply(address to,uint256 _amount) external onlyOwner returns(bool){\r\n        for(uint i = 1;i <= 4 ; i++){\r\n            if(resverdSupplyUnlockTime[i] < now && resverdUnlockSupply[i] != 0){\r\n                resverdSupply += resverdUnlockSupply[i];\r\n                resverdUnlockSupply[i] = 0;\r\n            }\r\n            if(resverdSupplyUnlockTime[i] >  now)\r\n              break;\r\n        }\r\n        require(resverdSupply >= _amount);    \r\n        mint(to,_amount);\r\n        resverdSupply -= _amount;\r\n        return true;\r\n    }\r\n    \r\n    // for loop dont take too much cost as it only loop to 25\r\n    function mintDevFundSupply(address to,uint256 _amount) external onlyOwner returns(bool){\r\n        for(uint i = 1;i <= devFundCounter ; i++){\r\n            if(devFundSupplyUnlockTime[i] < now && devFundSupplyUnlockSupply[i] != 0){\r\n                devFundSupply += devFundSupplyUnlockSupply[i];\r\n                devFundSupplyUnlockSupply[i] = 0;\r\n            }\r\n            if(devFundSupplyUnlockTime[i] >  now)\r\n              break;\r\n        }\r\n        require(devFundSupply >= _amount);    \r\n        mint(to,_amount);\r\n        devFundSupply -= _amount;\r\n        return true;\r\n    }\r\n    \r\n    function mintTeamAdvisorFundSupply(address to,uint256 _amount) external onlyOwner returns(bool){\r\n        for(uint i = 1;i <= teamCounter ; i++){\r\n            if(teamAdvisorSupplyUnlockTime[i] < now && teamAdvisorSupplyUnlockSupply[i] != 0){\r\n                teamAdvisorSupply += teamAdvisorSupplyUnlockSupply[i];\r\n                teamAdvisorSupplyUnlockSupply[i] = 0;\r\n            }\r\n            if(teamAdvisorSupplyUnlockTime[i] >  now)\r\n              break;\r\n        }\r\n        require(teamAdvisorSupply >= _amount);    \r\n        mint(to,_amount);\r\n        teamAdvisorSupply -= _amount;\r\n        return true;\r\n    }\r\n\r\n    \r\n    \r\n    function _initSupply() internal returns (bool){\r\n        \r\n        circulationSupply = 370000;\r\n        stakeFarmSupply =  350000;\r\n        marketingSupply = 50000;\r\n        resverdSupply = 10000;\r\n        \r\n        uint256 currentTime = now;\r\n        uint256 tempAdvisor = 100000;\r\n        uint256 tempDev = 120000;\r\n    \r\n        for(uint j = 1;j <= 6 ; j++){\r\n            teamCounter+=1;\r\n            teamAdvisorSupplyUnlockTime[teamCounter] = currentTime+(teamAdvisorPeriod*j);\r\n            teamAdvisorSupplyUnlockSupply[teamCounter] = tempAdvisor/6;\r\n            \r\n        }\r\n        \r\n        for(uint k = 1;k <= 5 ; k++){\r\n            devFundCounter+= 1;\r\n            devFundSupplyUnlockTime[devFundCounter] = currentTime+(devFundPeriod*k);\r\n            devFundSupplyUnlockSupply[devFundCounter] = tempDev/5;\r\n            \r\n        }\r\n        \r\n        \r\n        for(uint i = 1;i <= 4 ; i++){\r\n            currentTime += oneYear;\r\n            \r\n            stakeFarmSupplyUnlockTime[i] = currentTime;\r\n            stakeFarmUnlockSupply[i] = 720000;\r\n         \r\n            marketingSupplyUnlockTime[i] = currentTime;\r\n            marketingUnlockSupply[i] = 50000;\r\n            \r\n            resverdSupplyUnlockTime[i] = currentTime;\r\n            resverdUnlockSupply[i] = 10000;\r\n            \r\n            \r\n           for(uint j = 1;j <= 6 ; j++){\r\n                teamCounter+=1;\r\n                teamAdvisorSupplyUnlockTime[teamCounter] = currentTime+(teamAdvisorPeriod*j);\r\n                teamAdvisorSupplyUnlockSupply[teamCounter] = tempAdvisor/6;\r\n            \r\n           }\r\n        \r\n            for(uint k = 1;k <= 5 ; k++){\r\n                devFundCounter+= 1;\r\n                devFundSupplyUnlockTime[devFundCounter] = currentTime+(devFundPeriod*k);\r\n                devFundSupplyUnlockSupply[devFundCounter] = tempDev/5;\r\n                \r\n            }\r\n             \r\n        }\r\n            \r\n \r\n    }\r\n   \r\n}\r\n\r\ncontract Remit is Token_{\r\n    \r\n    \r\n    \r\n    constructor() public{\r\n      symbol = \"REMIT\";\r\n      name = \"Remit\";\r\n      decimals = 18;\r\n      totalSupply = 1000;  \r\n      owner = msg.sender;\r\n      balances[owner] = totalSupply;\r\n      _initSupply();\r\n      \r\n    }\r\n    \r\n    \r\n\r\n    receive () payable external {\r\n      require(msg.value>0);\r\n      owner.transfer(msg.value);\r\n    }\r\n}",
  "sourcePath": "C:\\Users\\Hp\\Staking_Contract\\contracts\\Token_contract.sol",
  "compiler": {
    "name": "solc",
    "version": "0.6.12+commit.27d51765.Emscripten.clang"
  },
  "schemaVersion": "3.4.3",
  "updatedAt": "2021-09-15T10:21:10.783Z",
  "devdoc": {
    "kind": "dev",
    "methods": {},
    "version": 1
  },
  "userdoc": {
    "kind": "user",
    "methods": {},
    "version": 1
  }
}